:100000000C94DC010C940D020C940D020C940D0266
:100010000C940D020C940D020C940D020C940D0224
:100020000C940D020C940D020C940D020C940D0214
:100030000C940D020C940D020C940D020C940D0204
:100040000C940D020C940D020C940D020C940D02F4
:100050000C940D020C940D020C940D020C94880F5C
:100060000C940D020C94520F0C94280F0C940D025A
:100070000C940D020C940D020C940D020C940D02C4
:100080000C940D020C940D020C940D020C940D02B4
:100090000C94F20E0C94C80E0C940D020C940D02EC
:1000A0000C940D020C940D020C940D020C940D0294
:1000B0000C940D020C940D020C940D020C940D0284
:1000C0000C940D020C940D020C940D020C940D0274
:1000D0000C940D020C940D020C940D020C940D0264
:1000E0000C940D020C9496030C94D9040C94D40532
:1000F0000C943A060C94D3070C9410030C94090446
:100100000C94A5030C94F4020C9487070C948A07B2
:100110000C94BF020C9490060C94C7030C942E060A
:100120000C9451090C94F0020C9437060C9493062D
:100130000C94FE020C940C030C94EA020C94140828
:100140000C9434060C94DA090C9456040C940603AF
:100150000C9469030C94BA020C94F8020C94B90341
:100160000C9421090C94D5020C943E080C94E602E0
:100170000C94D1020C9431060C94D4040C94020318
:100180000C94D7050C948D070C9496060C94D90208
:100190000C94DA050C945D0B0C94D20F0C94E002D5
:1001A0000C94DD027374645F6D7367732F54696D13
:1001B000650063643731363663373463353532630F
:1001C000333131666263633266653561376263324B
:1001D000383900726F7373657269616C5F6D736734
:1001E000732F546F706963496E666F0030616435B8
:1001F00031663838666334343839326638633130C2
:1002000036383430373736343630303500726F7325
:1002100073657269616C5F6D7367732F4C6F6700F4
:1002200031316162643733316332353933333236D9
:100230003163643631383362643132643632393591
:1002400000726F7373657269616C5F6D7367732F92
:1002500052657175657374506172616D00396630F5
:100260006539386264613635393831393836646415
:1002700066353361666137613430653439007374D3
:10028000645F6D7367732F537472696E67003939D9
:100290003263653861313638376365633863386295
:1002A0006438383365633733636134316431000057
:1002B000000A0B02090C0D0E0807030401000000E0
:1002C000000000000000000000000000000000002E
:1002D00000000000000000000000001211100000EB
:1002E000000000000000000000000000000000000E
:1002F000000000000000002200250028002B002E36
:10030000003100340002010000050108010B01006A
:10031000002100240027002A002D003000330001B6
:10032000010000040107010A01050505050705088C
:10033000080808020202020A0A0808040404040168
:10034000010101010101010303030303030303048A
:100350000707070C0C0C0C0C0C0C0C02020202061A
:10036000060606060606060B0B0B0B0B0B0B0B010A
:1003700002102020080810204010204080020102B6
:10038000010804020101020408102040808040207E
:1003900010080402018004020180402010080402B9
:1003A0000108040201010204081020408001020437
:1003B000081020408000D20F11241FBECFEFD1E2E1
:1003C000DEBFCDBF00E00CBF12E0A0E0B2E0E2EF84
:1003D000FAE200E00BBF02C007900D92A43DB10706
:1003E000D9F728E0A4EDB2E001C01D92A23EB20709
:1003F000E1F711E0CCEDD1E000E006C02197010962
:10040000802FFE010E942013CB3DD10780E008071A
:10041000A9F70E94D7100C9477150C940000CF9286
:10042000DF92EF92FF92CF93DF93EC016A017B01A1
:10043000E889F98982E08083C11481EED806E1045D
:10044000F104A1F060E079E08DE390E0A70196016E
:100450000E94FE12215031094109510956954795D4
:1004600037952795211580E1380798F0E889F989B3
:10047000108260E874E88EE190E0A70196010E9486
:10048000FE1221503109410951095695479537957A
:100490002795EC85FD853083EE85FF852083188EBA
:1004A000EC89FD8986E08083EA89FB89808180610F
:1004B0008083EA89FB89808188608083EA89FB895F
:1004C000808180688083EA89FB8980818F7D808339
:1004D000DF91CF91FF90EF90DF90CF90089590E063
:1004E000FC01E159FC4F2491875D9C4FFC018491F4
:1004F000882399F090E0880F991FFC01E15FFC4F81
:10050000A591B491FC01EB50FD4F859194918FB76B
:10051000F894EC91E22BEC938FBF0895382FE5EB24
:10052000F2E08491E5E7F3E02491EFE2F3E09491C7
:10053000992309F435C0882311F181508231F8F4F0
:10054000E82FF0E08827E855FD4F8F4F0C942013DB
:10055000D902DD02BA02D102D502BF02E002E602F0
:10056000EA02F002F402F802FE020203BF020603EE
:100570000C031003809180008F7780938000E92F17
:10058000F0E0EE0FFF1FEB50FD4FA591B4918FB738
:10059000F894EC91311148C020952E232C938FBFF5
:1005A0000895809180008F7DE8CF80918000877FC3
:1005B000E4CF84B58F7784BDE2CF84B58F7DFBCF48
:1005C0008091B0008F778093B000D9CF8091B00038
:1005D0008F7DF9CF809190008F7780939000CFCF5F
:1005E000809190008F7DF9CF80919000877FF5CF2B
:1005F0008091A0008F778093A000C1CF8091A00050
:100600008F7DF9CF8091A000877FF5CF8091200169
:100610008F7780932001B3CF809120018F7DF9CF18
:1006200080912001877FF5CF2E2BB8CFCF92DF921C
:10063000EF92FF920F931F93CF93DF93C8E033EEB7
:10064000E32E33E0F32E4BECC42E47E0D42ED1E062
:10065000082F10E080FF18C0C6010197F1F78091C4
:10066000DD088D278093DD080E948E02C8019595D4
:100670008795C15069F7DF91CF911F910F91FF903E
:10068000EF90DF90CF900895C701E7CFCF93DF932E
:1006900000D01F921F92CDB7DEB720E432E03A833C
:1006A000298323E02B837D836C83DC01ED91FC9116
:1006B0000190F081E02DAE014F5F5F4F67E070E089
:1006C00019950F900F900F900F900F90DF91CF9191
:1006D0000895AF92BF92CF92DF92EF92FF920F9365
:1006E0001F93CF93DF936C017B018B01040F151FC8
:1006F000EB015E01AE18BF08C017D10759F0699130
:10070000D601ED91FC910190F081E02DC601199583
:10071000892B79F7C501DF91CF911F910F91FF9040
:10072000EF90DF90CF90BF90AF900895FC01538D74
:10073000448D252F30E0842F90E0821B930B5417BB
:1007400010F0CF96089501970895FC01918D828D48
:10075000981761F0A28DAE0FBF2FB11D5D968C91E1
:10076000928D9F5F9F73928F90E008958FEF9FEF20
:100770000895FC01918D828D981731F0828DE80FDC
:10078000F11D858D90E008958FEF9FEF0895FC0196
:10079000918D228D892F90E0805C9F4F821B910963
:1007A0008F739927089583E893E00E94C70321E09F
:1007B000892B09F420E0822F089586EE92E00E94B2
:1007C000C70321E0892B09F420E0822F0895FC0162
:1007D000A48DA80FB92FB11DA35ABF4F2C91848DA2
:1007E00090E001968F739927848FA689B7892C93FF
:1007F000A089B1898C91837080648C93938D848D52
:10080000981306C00288F389E02D80818F7D808354
:100810000895EF92FF920F931F93CF93DF93EC0114
:1008200081E0888F9B8D8C8D98131AC0E889F98997
:10083000808185FF15C09FB7F894EE89FF8960839A
:10084000E889F98980818370806480839FBF81E01B
:1008500090E0DF91CF911F910F91FF90EF9008955D
:10086000F62E0B8D10E00F5F1F4F0F731127E02E38
:100870008C8D8E110CC00FB607FCFACFE889F98970
:10088000808185FFF5CFCE010E94E703F1CFEB8D8C
:10089000EC0FFD2FF11DE35AFF4FF0829FB7F89444
:1008A0000B8FEA89FB8980818062CFCFCF93DF9362
:1008B000EC01888D8823B9F0AA89BB89E889F98978
:1008C0008C9185FD03C0808186FD0DC00FB607FCAD
:1008D000F7CF8C9185FFF2CF808185FFEDCFCE01E0
:1008E0000E94E703E9CFDF91CF91089580E090E087
:1008F000892B29F00E94DD0381110E94000080E015
:1009000090E0892B29F00E94D30381110E940000FE
:1009100080E090E0892B49F080E090E0892B29F07D
:100920000E94000081110E94000080E090E0892B6D
:1009300049F080E090E0892B29F00E9400008111AD
:100940000C94000008953FB7F8948091D9029091DB
:10095000DA02A091DB02B091DC0226B5A89B05C0AB
:100960002F3F19F00196A11DB11D3FBFBA2FA92F2E
:10097000982F8827BC01CD01620F711D811D911D2B
:1009800042E0660F771F881F991F4A95D1F7089597
:100990002FB7F8946091D5027091D6028091D7025A
:1009A0009091D8022FBF08958E579B4FFC018081F4
:1009B0000895AF92BF92CF92DF92EF92FF920F9382
:1009C0001F93CF93DF93643671054CF0FC01EE5713
:1009D000FB4F2081C12CD12C222309F461C0DA0104
:1009E0006B01EC01BC01655E7D4FED91FC910190C6
:1009F000F081E02DCA0119958C017E012CEEE21ADE
:100A00002DEFF20A2FEFD7012C93FE01EB5EFD4F85
:100A10002EEF208331968083319690833196890F13
:100A2000809580833196C0821696DC9245E050E036
:100A300030E020E0C80107964817590730F461916B
:100A4000260F311D4F5F5F4FF7CF085F1F4F8C0F91
:100A50009D1FFC01EC5EFD4F209520830130B2E02C
:100A60001B07A8F468015701C5018E199F0980175B
:100A70009107B4F48A819B81F50161915F01DC01EA
:100A8000ED91FC910190F081E02D1995EDCF6CE78F
:100A900072E0CE010E944603CC24CA94DD24DA948D
:100AA000C601DF91CF911F910F91FF90EF90DF90E2
:100AB000CF90BF90AF9008950F931F93CF93DF9384
:100AC00000D000D000D01F92CDB7DEB78C0184E3F8
:100AD00092E09A8389831B821C821D821E821F8260
:100AE000188619861A86D801ED91FC910190F08143
:100AF000E02DAE014F5F5F4F6AE070E0C8011995CD
:100B00000E94C804F80160877187828793872A96BC
:100B10000FB6F894DEBF0FBECDBFDF91CF911F910E
:100B20000F910895442339F021E030E0FC01338334
:100B3000228362E272E0CB010895CF92DF92EF92BE
:100B4000FF92DC011D921D921D921C921397FB01D6
:100B500030E020E0419150E0022E02C0440F551FCA
:100B60000A94E2F7052E000C660B770BCD90DD9012
:100B7000ED90FC9013974C295D296E297F294D93A8
:100B80005D936D937C931397285F3F4F203231051F
:100B900009F7FF90EF90DF90CF900895FC0140831C
:100BA00051831282138208958EE892E008958EE7B1
:100BB00092E008954F925F926F927F928F929F92F0
:100BC000AF92BF92EF92FF920F931F93CF93DF9359
:100BD00000D01F92CDB7DEB77C018B01CE0101960C
:100BE0000E949D0589819A81AB81BC814C015D0188
:100BF00024E0820E911CA11CB11CA8014D5F5F4F27
:100C0000FA0124E030E02901712C612C48145904C8
:100C10006A047B0428F4618161932F5F3F4FF3CF17
:100C2000F801E80FF91F1382F701538342830496FA
:100C30000F900F900F900F90DF91CF911F910F9118
:100C4000FF90EF90BF90AF909F908F907F906F90AC
:100C50005F904F900895CB01089508958DE592E03F
:100C6000089581E492E0089580E292E008958DE095
:100C700092E008954F925F926F927F928F929F922F
:100C8000AF92BF92EF92FF920F931F93CF93DF9398
:100C900000D01F92CDB7DEB77C018B01FB018191A3
:100CA000BF01F7018283CE0101960E949D058981D3
:100CB0009A81AB81BC814C015D01F5E08F0E911CE6
:100CC000A11CB11CA8014C5F5F4FFA0125E030E088
:100CD0002901712C612C481459046A047B0428F4FE
:100CE000618161932F5F3F4FF3CFF801E80FF91F48
:100CF0001482F7015483438305960F900F900F9051
:100D00000F90DF91CF911F910F91FF90EF90BF90C7
:100D1000AF909F908F907F906F905F904F900895CD
:100D20008CEE91E0089583ED91E008954F925F92EB
:100D30006F927F928F929F92AF92BF92CF92DF92EB
:100D4000EF92FF920F931F93CF93DF93CDB7DEB750
:100D50002C970FB6F894DEBF0FBECDBF7C018B0180
:100D6000DB018C9190E0F7019383828311962C91A3
:100D7000922B938382836E5F7F4FCE0101960E94F8
:100D80009D0589809A80AB80BC8024013501F6E006
:100D90004F0E511C611C711C98012B5F3F4FF901D4
:100DA00086E090E0AC0170E060E044155505660512
:100DB000770520F4418141930196F4CFB4016A5F35
:100DC0007F4FF801E80DF91D1582D70115963C9368
:100DD0002E931497600F711FCE0105960E949D05FA
:100DE000BAE08B0E911C4D805E806F807884C401C8
:100DF000092C000CAA0BBB0B5C016D01A40CB51CEB
:100E0000C61CD71CF801E80DF91DAF01401B510BA2
:100E100070E060E04A155B056C057D0538F42191B2
:100E2000AF0142505109DA012C93EFCF480C591C05
:100E3000B801640D751DFB0131971082C401019743
:100E4000800F911FF70197838683CE0109960E9438
:100E50009D0592012C5F3F4F89849A84AB84BC84AA
:100E6000A901032E000C660B770B480D591D6A1D56
:100E70007B1DF801E20FF31FCF01801B910BB0E047
:100E8000A0E084179507A607B70728F48191DF0132
:100E900012978C93F1CFC901880D991DF801E80FC5
:100EA000F91FDF0111971C9221503109020F131F06
:100EB000D70119961C930E9318972181428150E017
:100EC00070E060E0BA0155274427522B2081422B65
:100ED0002381722BF70142875387648775870496B5
:100EE0002C960FB6F894DEBF0FBECDBFDF91CF9129
:100EF0001F910F91FF90EF90DF90CF90BF90AF9038
:100F00009F908F907F906F905F904F90089582EBAD
:100F100091E0089584EA91E00895FC01DB014C9191
:100F200050E070E060E042835383648375831196E0
:100F30008C911197582B4283538364837583129647
:100F40008C911297682B4283538364837583139625
:100F50008C911397782B4283538364837583149603
:100F60004C91149750E070E060E0468357836087AF
:100F7000718715968C911597582B468357836087F8
:100F8000718716968C911697682B468357836087D6
:100F9000718717968C91782B46835783608771876A
:100FA00088E090E00895DC01FB0112968C91129785
:100FB000808313968C911397818314968C91149748
:100FC000828315968C911597838316968C9116972C
:100FD000848317968C911797858318968C91189710
:100FE000868319968C91878388E090E00895CF934B
:100FF000DF93FC0101900020E9F73197AF01481B16
:10100000590BBC0186EE92E00E946903EC0142E0BC
:1010100050E065EB72E086EE92E00E9469038C0F6F
:101020009D1FDF91CF910895EF92FF920F931F9331
:10103000CF93DF937C018B01DC011296ED91FC9143
:10104000EF0109900020E9F72197CE1BDF0BAE01DD
:1010500070E060E0C8010E94CE05F70162817381F3
:10106000AE01C80104960E946E15CE010496DF9170
:10107000CF911F910F91FF90EF9008954F925F9243
:101080006F927F928F929F92AF92BF92CF92DF9298
:10109000EF92FF920F931F93CF93DF93EC017B01AD
:1010A0008A81FB0180838B8181838C8182838D8106
:1010B00083833496412C512C320104E010E09F01CF
:1010C0002F5F3F4FCF010296DF011396A8010C5FFF
:1010D0001F4F8A809B80AC80BD80481459046A04ED
:1010E0007B04C8F4AA85BB85A40FB51F14974C9147
:1010F00011962C91119712969C91129713968C91A0
:1011000040832183928383838FEF481A580A680AA9
:10111000780A3496D4CF4C8540834D85F9014083BD
:101120002E85FC0120838F858C93F701E00FF11F42
:10113000412C512C3201AF019F012F5F3F4FCF0156
:101140000296DF0113960C5F1F4F8C849D84AE8442
:10115000BF84481459046A047B04D8F4CF01841B6B
:10116000950BAC89BD89A80FB91F3C9111962C91A4
:10117000119712969C91129713968C91308321832C
:10118000928383838FEF481A580A680A780A349644
:10119000D3CF4E8940834F89F9014083288DFC01CC
:1011A0002083898D8C93412C512C32018E899F890B
:1011B000A88DB98D481659066A067B0680F552013E
:1011C000AA0CBB1CEC8DFD8DEA0DFB1DA081B1812D
:1011D000FD0101900020E9F731976F01CA1ADB0A7F
:1011E000A60170E060E0C701800F911F0E94CE054C
:1011F0000C5F1F4F8C8D9D8DA80EB91EF50160816F
:101200007181A601C701800F911F0E946E150C0D00
:101210001D1DFFEF4F1A5F0A6F0A7F0AC7CFC80173
:10122000DF91CF911F910F91FF90EF90DF90CF90C2
:10123000BF90AF909F908F907F906F905F904F90F6
:101240000895EF92FF920F931F93CF93DF938C013A
:101250007B01DC0112962C911297FB012193CF01A7
:101260001396ED91FC91EF0109900020E9F7219789
:10127000CE1BDF0BAE0170E060E00E94CE05D8010E
:1012800013966D917C91AE01C70105960E946E1573
:10129000CE010596DF91CF911F910F91FF90EF90B6
:1012A0000895CF92DF92EF92FF920F931F93CF9307
:1012B000DF936C01EB01DC0112968C91129788830D
:1012C00013968C91139789831496ED91FC91DF010D
:1012D0000D900020E9F78D01015011090E1B1F0B25
:1012E000A80170E060E0CE0102960E94CE05F601F2
:1012F00064817581A801CE0106960E946E15C80111
:101300000696F601A681B781FD0101900020E9F75C
:1013100031977F01EA1AFB0AA70170E060E08C0FA9
:101320009D1F0E94CE05065F1F4FD60116966D9138
:101330007C91A701CE01800F911F0E946E150E0DAA
:101340001F1DF601A085B185FD0101900020E9F780
:1013500031977F01EA1AFB0AA70170E060E0CE0135
:10136000800F911F0E94CE050C5F1F4FD60118966B
:101370006D917C91A701CE01800F911F0E946E1587
:10138000C701800F911FF60162854385348525854D
:10139000C80FD91F688349833A832B830496DF9152
:1013A000CF911F910F91FF90EF90DF90CF90089514
:1013B0000C9404142F923F924F925F926F927F92FF
:1013C0008F929F92AF92BF92CF92DF92EF92FF9255
:1013D0000F931F93CF93DF93CDB7DEB72E970FB642
:1013E000F894DEBF0FBECDBF8C016B01DB018D9089
:1013F0009D90AD90BC90FC0182819381A481B581C8
:1014000088159905AA05BB0570F4B401660F771F0E
:10141000660F771F828593850E948D14D8011B96D5
:101420009C938E931A97F80182829382A482B5824C
:10143000C60140E050E0BA01A4E0EA2EF12C980188
:101440002A5F3F4FDC011596EC91159716964C904C
:101450001697512C712C612C3201552444245E2A9C
:101460001496EC9114974E2A1796EC917E2AD70188
:101470001701E4E02E0E311C71010496F801828000
:101480009380A480B580481559056A057B05A8F4AA
:1014900046825782608671861497A284B384AA0D0F
:1014A000BB1DE4E0BE2EF90101900D92BA94E1F764
:1014B0004F5F5F4F6F4F7F4FC5CF84859585A68562
:1014C000B78584159505A605B70570F4B201660FBA
:1014D000771F660F771F848995890E948D14D80124
:1014E00055969C938E935497F8014486558666864C
:1014F0007786C601820D931D412C512C32011C01AF
:101500009801205F3F4FDC0111966C911197129664
:101510008C901297912CB12CA12C540199248824E1
:10152000962A6C91862A13966C91B62AB4E0EB0E3B
:10153000F11CF80144855585668577854416550666
:1015400066067706C0F4808A918AA28AB38ABC01B3
:1015500062197309A489B589A60FB71F64E0F90160
:1015600001900D926A95E1F7BFEF4B1A5B0A6B0A87
:101570007B0A0496C8CF86899789A08DB18D88157E
:101580009905AA05BB0560F4B401660F771F848D29
:10159000958D0E948D14D8015D969C938E935C97D7
:1015A000F801868A978AA08EB18E412C512C320187
:1015B0001801FAE12F0E311CF80186899789A08D58
:1015C000B18D481659066A067B0608F05CC0B60164
:1015D0006E0D7F1DCE0101960E949D0597012C5F27
:1015E0003F4F3E872D8789809A80AB80BC80C901A0
:1015F000032E000CAA0BBB0BAC01BD01480D591DFD
:101600006A1D7B1D49875A876B877C87F901EC0D22
:10161000FD1D9F012C193D09B90190E080E029854D
:101620003A854B855C85621773078407950728F414
:101630002191DF0112972C93ECCFED84FE84E80C0E
:10164000F91CF601EE0DFF1D319710828D859E85E8
:1016500001978C0D9D1DD8015B969C938E935A9794
:10166000C201880F991F5C96ED91FC91E80FF91F5C
:10167000D1018D919C9191838083BFEF4B1A5B0ABE
:101680006B0A7B0A99CFC7012E960FB6F894DEBF7E
:101690000FBECDBFDF91CF911F910F91FF90EF90C3
:1016A000DF90CF90BF90AF909F908F907F906F9082
:1016B0005F904F903F902F9008952F923F924F92BE
:1016C0005F926F927F928F929F92AF92BF92CF92D2
:1016D000DF92EF92FF920F931F93CF93DF93CDB7DB
:1016E000DEB7A6970FB6F894DEBF0FBECDBF8C0154
:1016F0000E94C8042B013C01980129573B4F3C8BA9
:101700002B8BF90180819181A281B381A301920188
:10171000281B390B4A0B5B0BDA01C901893F9A423E
:10172000A105B10510F035971082480148E8841AE8
:101730004BEF940AD4018D919C91892B79F0F8019B
:10174000E557FB4F80819181A281B3818415950576
:10175000A605B70518F4F4011182108298012058EB
:101760003B4F388B2F87A80144585B4F5A8B498BCE
:10177000180154E1250E311CC8018E579B4F988FDC
:101780008F8BD801A057BB4FBE8FAD8FF801E157AB
:10179000FB4FF8A3EF8F5801F6E8AF1AFBEFBF0A33
:1017A000225031093E8B2D8BA80145575B4F5AA320
:1017B00049A3D301C2014496A11DB11D8BA39CA3D3
:1017C000ADA3BEA3D80112968D919C91DC01ED9141
:1017D000FC910284F385E02D19959C0197FDAFC221
:1017E000EF85F88980819181820F931F9183808397
:1017F000D4014D915C91119747305105E1F4ED8989
:10180000FE8980819181AC014F5F5F4F518340839E
:10181000800F911FDC0154962C93F50180819181FA
:10182000019791838083892B69F688E090E0D40149
:101830008D939C93C7CF4115510509F03FC02F3FB1
:10184000310589F481E090E0F401918380832BA13C
:101850003CA14DA15EA1A9A1BAA12D933D934D93A9
:101860005C931397AFCF0E94C80464197509860969
:101870009709663071058105910508F4A3CFF80139
:10188000EE57FB4F10828EEF9FEFA6960FB6F8949F
:10189000DEBF0FBECDBFDF91CF911F910F91FF90A3
:1018A000EF90DF90CF90BF90AF909F908F907F9000
:1018B0006F905F904F903F902F9008954130510569
:1018C00081F482E090E02E3F310571F11D921C926F
:1018D000EF89F88D8081811175CFC8010E945C0568
:1018E00071CF4230510589F4D5012D933C93ED8998
:1018F000FE891182108283E090E0D4018D939C9345
:10190000EF85F889318320835DCF4330510581F421
:10191000322F2227D5018D919C911197280F391FC5
:101920002D933C9384E090E0F401918380834ACF2F
:101930004430510571F460E071E00E94EA128F3F7B
:10194000910519F485E090E072CFF40111821082C4
:1019500039CF4530510571F4A989BA892D933C934B
:1019600086E090E0F40191838083AF85B8892D9360
:101970003C9328CF4630510591F4322F2227E98934
:10198000FA8980819181280F391F3183208387E074
:1019900090E08D939C93F5018081918144CF4830F4
:1019A000510509F00FCF1D921C9260E071E00E947A
:1019B000EA128F3F910509F005CFA989BA89ED9107
:1019C000FC91309709F0ECC0C8010E945C0588E2E8
:1019D00092E09A8389831C821B8287EB92E09E832C
:1019E0008D8398878F839A8789871B861C861D869F
:1019F0001E866801BCEECB1ABBEFDB0A7801EAEB6E
:101A0000EE1AEBEFFE0AD601ED91FC91309709F446
:101A10004BC0858196819C838B83808191812281BB
:101A2000B12CA12C222329F0AA24A394B12C82E268
:101A300092E09E838D8383819481DC01ED91FC9102
:101A40000480F581E02D199598878F83D601ED915B
:101A5000FC9183819481DC01ED91FC910680F781FA
:101A6000E02D19959A87898720E032E040E050E028
:101A70002B873C874D875E87D601ED91FC91618570
:101A80007285D801ED91FC910190F081E02DAE01BD
:101A90004F5F5F4FC8011995AA94AB2829F468EBF2
:101AA00072E0C8010E944603E2E0CE0ED11CEC14A5
:101AB000FD0409F0A8CFF701A081B181109709F4C6
:101AC00054C012968D919C9113979C838B8314968E
:101AD0008D919C91159716962C911697D12CC12C0F
:101AE000222329F0CC24C394D12C82E292E09E835D
:101AF0008D83ED91FC9111970480F581E02DCD014E
:101B0000199598878F83D7018D919C91DC01ED9178
:101B1000FC910680F781E02D19959A87898720E04E
:101B200032E040E050E02B873C874D875E87D8014C
:101B3000ED91FC91A080B180F70180819181DC0161
:101B4000ED91FC910280F381E02D1995AE014F5F7C
:101B50005F4FBC01C801F5011995CA94CD2829F43D
:101B600068EB72E0C8010E94460322E0E20EF11C1D
:101B70008E149F0409F09FCFF801EE57FB4F81E0D0
:101B8000808331964082518262827382AB89BC89A4
:101B90004D925D926D927C9213978FEF9FEF75CE71
:101BA000EA30F10509F0A3C084E392E09A838983C7
:101BB0001B821C821D821E821F82188619861A862D
:101BC0000E94C804F801C084D184E284F3849B019C
:101BD000AC012C193D094E095F0969017A01B10177
:101BE000CE0101960E948D07C701B60128EE33E0B1
:101BF00040E050E00E94FE1269017A019B01AC01B5
:101C00008B819C81AD81BE818C0D9D1DAE1DBF1D44
:101C10008B839C83AD83BE8360E472E48FE090E0AD
:101C20000E94CE12CF80D884E984FA84DC01CB01F3
:101C30008C0D9D1DAE1DBF1D8F839887A987BA8708
:101C40000E94C804CF80D884E984FA8436E3D31A8A
:101C500035E6E30A34ECF30A28EE33E040E050E0E6
:101C60000E94FE12298F3A8F4B8F5C8F9B01AC0133
:101C700060E472E48FE090E00E94CE12A70196012A
:101C8000261B370B480B590BCA01B901CB80DC80EE
:101C9000ED80FE8031E0C31AD108E108F108298DFA
:101CA0003A8D4B8D5C8DC21AD30AE40AF50A20E006
:101CB0003AEC4AE95BE30E94FE122C0D3D1D4E1DDD
:101CC0005F1DD8011C962D933D934D935C931F97F8
:101CD000F801608B718B828B938B0E94C804AB8957
:101CE000BC896D937D938D939C9313976BCDE63058
:101CF000F10551F4B1018D8D9E8D0E94DA0981E0CC
:101D0000EF8DF8A180835ECDEB30F10521F4AF8932
:101D1000B88D1C9257CDE154FE4FEE0FFF1FE00F20
:101D2000F11F80819181009709F44CCDDC01ED9188
:101D3000FC910190F081E02DB101199543CDF8019E
:101D4000EE57FB4F8081882301F17801BDE7EB1A44
:101D5000BBEFFB0AF70180819181A281B381A301CE
:101D60009201281B390B4A0B5B0BDA01C901853C38
:101D70009940A105B10548F0C8010E945C05D70152
:101D80004D925D926D927C92139790E080E07DCDB4
:101D90001F920F920FB60F9211240BB60F922F9332
:101DA0003F934F935F936F937F938F939F93AF93E3
:101DB000BF93EF93FF9383E893E00E94E703FF91C3
:101DC000EF91BF91AF919F918F917F916F915F91B3
:101DD0004F913F912F910F900BBE0F900FBE0F9020
:101DE0001F9018951F920F920FB60F9211240BB6E9
:101DF0000F922F938F939F93EF93FF93E091930311
:101E0000F09194038081E0919903F0919A0382FD0F
:101E10001DC0908180919C038F5F8F7320919D03E3
:101E2000821741F0E0919C03F0E0ED57FC4F958F55
:101E300080939C03FF91EF919F918F912F910F9031
:101E40000BBE0F900FBE0F901F9018958081F2CFA0
:101E50001F920F920FB60F9211240BB60F922F9371
:101E60003F934F935F936F937F938F939F93AF9322
:101E7000BF93EF93FF9386EE92E00E94E703FF91FA
:101E8000EF91BF91AF919F918F917F916F915F91F2
:101E90004F913F912F910F900BBE0F900FBE0F905F
:101EA0001F9018951F920F920FB60F9211240BB628
:101EB0000F922F938F939F93EF93FF93E091F602EE
:101EC000F091F7028081E091FC02F091FD0282FD29
:101ED0001DC090818091FF028F5F8F73209100035E
:101EE000821741F0E091FF02F0E0EA51FD4F958F3B
:101EF0008093FF02FF91EF919F918F912F910F900F
:101F00000BBE0F900FBE0F901F9018958081F2CFDF
:101F10001F920F920FB60F9211242F933F938F931E
:101F20009F93AF93BF938091D5029091D602A091D9
:101F3000D702B091D8023091D40223E0230F2D377D
:101F400058F50196A11DB11D2093D4028093D502AE
:101F50009093D602A093D702B093D8028091D90271
:101F60009091DA02A091DB02B091DC020196A11DF2
:101F7000B11D8093D9029093DA02A093DB02B09353
:101F8000DC02BF91AF919F918F913F912F910F9064
:101F90000FBE0F901F90189526E8230F0296A11DE3
:101FA000B11DD2CF109286031092850348EE53E004
:101FB00060E070E040938703509388036093890347
:101FC00070938A038CE492E090938403809383035C
:101FD0002DEC30E03093900320938F032CEC30E015
:101FE000309392032093910328EC30E030939403D4
:101FF0002093930329EC30E03093960320939503CC
:102000002AEC30E030939803209397032EEC30E0D5
:1020100030939A032093990310929C0310929D038E
:1020200010929E0310929F031092E9021092E80210
:102030004093EA025093EB026093EC027093ED023E
:102040009093E7028093E60285EC90E09093F30290
:102050008093F20284EC90E09093F5028093F40276
:1020600080EC90E09093F7028093F60281EC90E090
:102070009093F9028093F80282EC90E09093FB0237
:102080008093FA0286EC90E09093FD028093FC022C
:102090001092FF02109200031092010310920203AB
:1020A0001092DD0886E00E946F028AE692E090932B
:1020B000300480932F0483E893E09093320480935C
:1020C000310480E092ECA1E0B0E08093330490937F
:1020D0003404A0933504B09336041092B1088EE511
:1020E00092E09093C0088093BF081092D508109298
:1020F000D6081092D7081092D8081092DC081092D7
:10210000DB08E3E4F8E01192119288E0E537F80784
:10211000D1F7E5E7F8E01192119288E0E73AF80785
:10212000D1F7E3E4F4E083E496E011928E179F0781
:10213000E1F7E3E4F6E0119288E0E334F807D9F739
:102140001092C1081092C2081092C3081092C408DD
:102150001092CA081092C9081092CB081092CC08AD
:102160001092CD081092CE081092D4081092D30885
:1021700084E792E090932C0480932B0487EB92E009
:1021800090932E0480932D048CEC92E09093210484
:1021900080932004109222048BE294E09093240414
:1021A0008093230410922A04109229040895CF9357
:1021B000DF9300D000D000D01F92CDB7DEB7789467
:1021C00084B5826084BD84B5816084BD85B582603C
:1021D00085BD85B5816085BD80916E0081608093ED
:1021E0006E00109281008091810082608093810056
:1021F0008091810081608093810080918000816066
:10220000809380008091B10084608093B1008091C0
:10221000B00081608093B0008091910082608093D3
:102220009100809191008160809391008091900055
:102230008160809390008091A10082608093A100D2
:102240008091A10081608093A1008091A0008160B5
:102250008093A00080912101826080932101809170
:102260002101816080932101809120018160809310
:10227000200180917A00846080937A0080917A00B6
:10228000826080937A0080917A00816080937A00E6
:1022900080917A00806880937A001092C10040E8B3
:1022A00055E260E070E086EE92E00E940F028DE061
:1022B0000E946F02409133045091340460913504C0
:1022C0007091360480913104909132040E940F0283
:1022D0001092A8081092A7081092AA081092A908B4
:1022E0001092AE081092AD081092AC081092AB0894
:1022F000E3E4F8E090E080E021913191232B09F0B4
:1023000029C1FC01EE0FFF1FED5BF74F20E234E027
:102310003183208383589F4F909326048093250414
:102320008FE294E0909328048093270423EB222EDD
:102330002BE0322E0E94C8044090DE025090DF0253
:102340006090E0027090E1028090E2029090E302DF
:10235000E090E402EA86F090E502F9869B01AC0188
:1023600060E070E080E090E05201630174010A8552
:1023700019850E943C1309F4F3C00E94C8049B0114
:10238000AC0160E070E080E090E052016301740114
:102390000A8519850E943313233F314041055105B9
:1023A000610571058105910509F008F43EC02FE033
:1023B00032E030932E0420932D04809127049091D5
:1023C00028046091250470912604DC01ED91FC91B4
:1023D0000190F081E02D4BE254E019958FE294E0FA
:1023E0000E945D0B8FE092E00E94F7070E94C804F4
:1023F0007B018C0120E030E0A9016983FA828B83A4
:102400001C832D833E834F8358876093DE02F092B6
:10241000DF028093E0021093E1021092E202109238
:10242000E3021092E4021092E5020E94C8046533B0
:1024300078408105910508F48AC02091DD02822F41
:102440006AE00E94DE12805D80930C02905D9093A2
:102450000D022F5F243608F09EC02093DD0200E0BD
:1024600012E01A83098390E0A981BA818D91BA8321
:10247000A983992E982688E09CE8969408F49926DA
:102480008A95D9F7992DEFE0F2E0EA17FB0761F79B
:102490001092DD0895E8A92EB12C8091DD08F1E0BD
:1024A0008F278093DD080E948E02C1010197F1F70A
:1024B00021E0A21AB10889F780E00E948E028BE920
:1024C0009FE00197F1F781E00E948E02D8018D9183
:1024D0008D010E941603E980FA80E016F106B1F73B
:1024E000892D0E941603C1010197F1F78091DD0843
:1024F000FF24F3948F258093DD080E948E0280E0F4
:1025000092E00E94F7070E94A3044B015C0184E65D
:10251000482E512C612C712C0E94A3046819790952
:102520008A099B09683E734081059105A8F301E083
:10253000401A51086108710818EE810E13E0911ECF
:10254000A11CB11C411451046104710429F70E94BB
:102550007604F0CE01968931910509F0CDCEE6CE14
:102560000E94C8047B018C0120E030E0A90169834E
:10257000FA828B831C832D833E834F83588792017D
:10258000A301B4018A85998557016801E12CF12CDA
:1025900000E010E0FFCE1092DD0261CFDB018F93EF
:1025A0009F930E942813BF91AF91A29F800D911D10
:1025B000A39F900DB29F900D11240895991B79E06F
:1025C00004C0991F961708F0961B881F7A95C9F7C3
:1025D0008095089597FB072E16F4009407D077FD99
:1025E00009D00E94451307FC05D03EF490958195D3
:1025F0009F4F0895709561957F4F0895A1E21A2E1F
:10260000AA1BBB1BFD010DC0AA1FBB1FEE1FFF1F96
:10261000A217B307E407F50720F0A21BB30BE40BE6
:10262000F50B661F771F881F991F1A9469F760952D
:102630007095809590959B01AC01BD01CF010895E7
:10264000EE0FFF1F881F8BBF0790F691E02D1994A6
:102650000E945913A59F900DB49F900DA49F800DCB
:10266000911D112408952A193B094C095D096E0931
:102670007F09800B910B08952A153B054C055D05DC
:102680006E057F05800791070895AA1BBB1B51E1CA
:1026900007C0AA1FBB1FA617B70710F0A61BB70BD2
:1026A000881F991F5A95A9F780959095BC01CD0177
:1026B0000895A29FB001B39FC001A39F700D811D1B
:1026C0001124911DB29F700D811D1124911D08953B
:1026D0000F931F93CF93DF938230910510F482E024
:1026E00090E0E091E008F091E10830E020E0B0E017
:1026F000A0E0309799F42115310509F44AC0281B50
:10270000390B24303105D8F58A819B81611571051B
:1027100089F1FB0193838283FE0111C040815181C5
:102720000281138148175907E0F04817590799F4B7
:10273000109761F012960C93129713961C93329691
:10274000CF01DF91CF911F910F9108950093E00881
:102750001093E108F4CF2115310551F042175307CA
:1027600038F0A901DB019A01BD01DF01F801C1CFF9
:10277000EF01F9CF9093E1088093E008CDCFFE01FF
:10278000E20FF31F819391932250310939832883FB
:10279000D7CF2091DE083091DF08232B41F4209120
:1027A0001E0230911F023093DF082093DE08209133
:1027B0001C0230911D022115310541F42DB73EB7A1
:1027C0004091200250912102241B350BE091DE083C
:1027D000F091DF08E217F307A0F42E1B3F0B281738
:1027E000390778F0AC014E5F5F4F2417350748F08A
:1027F0004E0F5F1F5093DF084093DE088193919343
:102800009FCFF0E0E0E09CCFCF93DF930097E9F01B
:10281000FC01329713821282A091E008B091E10886
:10282000ED0130E020E01097A1F420813181820F8A
:10283000931F2091DE083091DF082817390709F02F
:1028400061C0F093DF08E093DE08DF91CF91089537
:10285000EA01CE17DF07E8F54A815B819E01411549
:102860005105B1F7E901FB83EA8349915991C40FFE
:10287000D51FEC17FD0761F4808191810296840FCA
:10288000951FE90199838883828193819B838A8341
:10289000F0E0E0E012968D919C9113970097B9F5C6
:1028A0002D913C911197CD010296820F931F20919B
:1028B000DE083091DF082817390739F6309751F5CF
:1028C0001092E1081092E008B093DF08A093DE08B0
:1028D000BCCFD383C28340815181840F951FC81719
:1028E000D90761F44E5F5F4F88819981480F591F66
:1028F000518340838A819B81938382832115310593
:1029000009F0B0CFF093E108E093E0089ECFFD011D
:10291000DC01C0CF13821282D7CF4F925F926F92A9
:102920007F928F929F92AF92BF92CF92DF92EF925F
:10293000FF920F931F93CF93DF938C01009799F42D
:10294000CB01DF91CF911F910F91FF90EF90DF901E
:10295000CF90BF90AF909F908F907F906F905F903F
:102960004F900C946813FC01E60FF71F9C01225056
:102970003109E217F30708F4AEC0D901CD91DC911B
:102980001197C617D70720F1C530D10578F0CE01D1
:1029900004978617970750F0C61BD70B2297C19351
:1029A000D1936D937C93CF010E940414C801DF91F1
:1029B000CF911F910F91FF90EF90DF90CF90BF903C
:1029C000AF909F908F907F906F905F904F90089501
:1029D0005B01AC1ABD0A4C018C0E9D1EA091E00853
:1029E000B091E108512C412CF12CE12C109731F5DC
:1029F0008091DE089091DF088815990509F05CC088
:102A00004616570608F058C080911C0290911D028E
:102A1000009741F48DB79EB740912002509121025A
:102A2000841B950BE817F90708F055C0F093DF08F1
:102A3000E093DE08F90171836083B8CF8D919C919A
:102A4000119712966C90129713967C901397A81575
:102A5000B90559F56C0142E0C40ED11CCA14DB045F
:102A600020F1AC014A195B09DA011296159780F042
:102A70006282738251834083D9016D937C93E11408
:102A8000F10471F0D7011396FC93EE9312978ECF59
:102A900022968C0F9D1FF90191838083F301EFCF64
:102AA000F093E108E093E00881CF4816590608F456
:102AB0002C017D01D3019ACFCB010E9468137C01C8
:102AC000009749F0AE01B8010E946E15C8010E943E
:102AD000041487016BCF10E000E068CFFB01DC013C
:102AE00002C001900D9241505040D8F70895F894DB
:022AF000FFCF16
:102AF20048656C6C6F2066726F6D20237878006871
:102B0200656C6C6F20776F726C6421000000E208C4
:102B1200800000000000000051099606930690060E
:102B220000000000D3078D078A0787070000000016
:102B320021093A0637063406000000000904690339
:102B420096035604C703A503B903000000003E081C
:102B5200DA0931062E0600000000D9045D0BD40408
:102B6200000000001408DA05D705D4054D6573731B
:102B72006167652066726F6D2064657669636520A2
:102B820064726F707065643A206D65737361676516
:102B9200206C6172676572207468616E206275666E
:102BA2006665722E000D0A00466C617368207265BC
:102BB2006164206E6F7420696D706C00636861746B
:042BC20074657200C4
:00000001FF
