:100000000C94DC010C940D020C940D020C940D0266
:100010000C940D020C940D020C940D020C940D0224
:100020000C940D020C940D020C940D020C940D0214
:100030000C940D020C940D020C940D020C940D0204
:100040000C940D020C940D020C940D020C940D02F4
:100050000C940D020C940D020C940D020C94A50E40
:100060000C940D020C940D020C940D020C940D02D4
:100070000C940D020C940D020C940D020C940D02C4
:100080000C940D020C940D020C940D020C940D02B4
:100090000C946F0E0C94450E0C940D020C940D02F2
:1000A0000C940D020C940D020C940D020C940D0294
:1000B0000C940D020C940D020C940D020C940D0284
:1000C0000C940D020C940D020C940D020C940D0274
:1000D0000C940D020C940D020C940D020C940D0264
:1000E0000C940D020C94CB050C949E020C94B0025F
:1000F0000C9473040C94A2020C9445030C94860295
:100100000C9491070C946E040C9474050C943603B3
:100110000C94EC030C94A6020C947D020C94DA0A65
:100120000C9490020C942D060C9494020C94570994
:100130000C9424070C945A020C9421070C94790215
:100140000C9467030C94AC020C9409030C94CE0835
:100150000C9498020C9471050C94CE050C94D10566
:100160000C942A060C9459030C946D070C949E0869
:100170000C9471020C94D4050C945F020C94C80585
:100180000C9430060C948A020C9480020C9427077D
:100190000C9475020C946E050C949F030C94BB0791
:1001A0000C94EF0E7374645F6D7367732F54696DF5
:1001B000650063643731363663373463353532630F
:1001C000333131666263633266653561376263324B
:1001D000383900726F7373657269616C5F6D736734
:1001E000732F546F706963496E666F0030616435B8
:1001F00031663838666334343839326638633130C2
:1002000036383430373736343630303500726F7325
:1002100073657269616C5F6D7367732F4C6F6700F4
:1002200031316162643733316332353933333236D9
:100230003163643631383362643132643632393591
:1002400000726F7373657269616C5F6D7367732F92
:1002500052657175657374506172616D00396630F5
:100260006539386264613635393831393836646415
:1002700066353361666137613430653439007374D3
:10028000645F6D7367732F537472696E67003939D9
:100290003263653861313638376365633863386295
:1002A0006438383365633733636134316431000057
:1002B000000A0B02090C0D0E0807030401000000E0
:1002C000000000000000000000000000000000002E
:1002D00000000000000000000000001211100000EB
:1002E000000000000000000000000000000000000E
:1002F000000000000000002200250028002B002E36
:10030000003100340002010000050108010B01006A
:10031000002100240027002A002D003000330001B6
:10032000010000040107010A01050505050705088C
:10033000080808020202020A0A0808040404040168
:10034000010101010101010303030303030303048A
:100350000707070C0C0C0C0C0C0C0C02020202061A
:10036000060606060606060B0B0B0B0B0B0B0B010A
:1003700002102020080810204010204080020102B6
:10038000010804020101020408102040808040207E
:1003900010080402018004020180402010080402B9
:1003A0000108040201010204081020408001020437
:1003B000081020408000EF0E11241FBECFEFD1E2C5
:1003C000DEBFCDBF00E00CBF12E0A0E0B2E0EAE784
:1003D000F9E200E00BBF02C007900D92A23DB10709
:1003E000D9F728E0A2EDB2E001C01D92A334B20714
:1003F000E1F711E0CCEDD1E000E006C02197010962
:10040000802FFE010E946412CB3DD10780E00807D7
:10041000A9F70E94B80F0C94BB140C94000090E054
:10042000FC01E159FC4F2491875D9C4FFC018491B4
:10043000882399F090E0880F991FFC01E15FFC4F41
:10044000A591B491FC01EB50FD4F859194918FB72C
:10045000F894EC91E22BEC938FBF0895382FE5EBE5
:10046000F2E08491E5E7F3E02491EFE2F3E0949188
:10047000992309F435C0882311F181508231F8F4B1
:10048000E82FF0E08827E85BFD4F8F4F0C94641253
:1004900079027D025A02710275025F0280028602B1
:1004A0008A029002940298029E02A2025F02A602B1
:1004B000AC02B002809180008F7780938000E92F9A
:1004C000F0E0EE0FFF1FEB50FD4FA591B4918FB7F9
:1004D000F894EC91311148C020952E232C938FBFB6
:1004E0000895809180008F7DE8CF80918000877F84
:1004F000E4CF84B58F7784BDE2CF84B58F7DFBCF09
:100500008091B0008F778093B000D9CF8091B000F8
:100510008F7DF9CF809190008F7780939000CFCF1F
:10052000809190008F7DF9CF80919000877FF5CFEB
:100530008091A0008F778093A000C1CF8091A00010
:100540008F7DF9CF8091A000877FF5CF809120012A
:100550008F7780932001B3CF809120018F7DF9CFD9
:1005600080912001877FF5CF2E2BB8CFCF92DF92DD
:10057000EF92FF920F931F93CF93DF93C8E033EE78
:10058000E32E33E0F32E4BECC42E47E0D42ED1E023
:10059000082F10E080FF18C0C6010197F1F7809185
:1005A0003E088D2780933E080E942E02C801959533
:1005B0008795C15069F7DF91CF911F910F91FF90FF
:1005C000EF90DF90CF900895C701E7CFCF93DF93EF
:1005D00000D01F921F92CDB7DEB720E432E03A83FD
:1005E000298323E02B837D836C83DC01ED91FC91D7
:1005F0000190F081E02DAE014F5F5F4F67E070E04A
:1006000019950F900F900F900F900F90DF91CF9151
:100610000895AF92BF92CF92DF92EF92FF920F9325
:100620001F93CF93DF936C017B018B01040F151F88
:10063000EB015E01AE18BF08C017D10759F06991F0
:10064000D601ED91FC910190F081E02DC601199544
:10065000892B79F7C501DF91CF911F910F91FF9001
:10066000EF90DF90CF90BF90AF900895FC01538D35
:10067000448D252F30E0842F90E0821B930B54177C
:1006800010F0CF96089501970895FC01918D828D09
:10069000981761F0A28DAE0FBF2FB11D5D968C91A2
:1006A000928D9F5F9F73928F90E008958FEF9FEFE1
:1006B0000895FC01918D828D981731F0828DE80F9D
:1006C000F11D858D90E008958FEF9FEF0895FC0157
:1006D000918D228D892F90E0805C9F4F821B910924
:1006E0008F739927089584EE92E00E94670321E0BA
:1006F000892B09F420E0822F0895FC01A48DA80F16
:10070000B92FB11DA35ABF4F2C91848D90E0019653
:100710008F739927848FA689B7892C93A089B18973
:100720008C91837080648C93938D848D981306C014
:100730000288F389E02D80818F7D80830895EF9278
:10074000FF920F931F93CF93DF93EC0181E0888F8B
:100750009B8D8C8D98131AC0E889F989808185FF5B
:1007600015C09FB7F894EE89FF896083E889F989FD
:1007700080818370806480839FBF81E090E0DF91FF
:10078000CF911F910F91FF90EF900895F62E0B8D52
:1007900010E00F5F1F4F0F731127E02E8C8D8E110D
:1007A0000CC00FB607FCFACFE889F989808185FF74
:1007B000F5CFCE010E947D03F1CFEB8DEC0FFD2F25
:1007C000F11DE35AFF4FF0829FB7F8940B8FEA892F
:1007D000FB8980818062CFCFCF93DF93EC01888D3E
:1007E0008823B9F0AA89BB89E889F9898C9185FDAC
:1007F00003C0808186FD0DC00FB607FCF7CF8C913A
:1008000085FFF2CF808185FFEDCFCE010E947D0371
:10081000E9CFDF91CF91089580E090E0892B49F0F6
:1008200080E090E0892B29F00E94000081110E9455
:10083000000080E090E0892B29F00E947303811171
:100840000E94000080E090E0892B49F080E090E079
:10085000892B29F00E94000081110E94000080E095
:1008600090E0892B49F080E090E0892B29F00E94EC
:10087000000081110C94000008953FB7F894809116
:10088000D7029091D802A091D902B091DA0226B590
:10089000A89B05C02F3F19F00196A11DB11D3FBFB8
:1008A000BA2FA92F982F8827BC01CD01620F711D87
:1008B000811D911D42E0660F771F881F991F4A9581
:1008C000D1F708952FB7F8946091D3027091D402B4
:1008D0008091D5029091D6022FBF08958E579B4FDD
:1008E000FC0180810895AF92BF92CF92DF92EF9288
:1008F000FF920F931F93CF93DF93643671054CF0F3
:10090000FC01EE57FB4F2081C12CD12C222309F48E
:1009100061C0DA016B01EC01BC01655E7D4FED91B8
:10092000FC910190F081E02DCA0119958C017E01A6
:100930002CEEE21A2DEFF20A2FEFD7012C93FE01D5
:10094000EB5EFD4F2EEF20833196808331969083AE
:100950003196890F809580833196C0821696DC92FD
:1009600045E050E030E020E0C801079648175907FD
:1009700030F46191260F311D4F5F5F4FF7CF085F55
:100980001F4F8C0F9D1FFC01EC5EFD4F20952083B7
:100990000130B2E01B07A8F468015701C5018E19A8
:1009A0009F0980179107B4F48A819B81F5016191B9
:1009B0005F01DC01ED91FC910190F081E02D199532
:1009C000EDCF6CE772E0CE010E94E602CC24CA941F
:1009D000DD24DA94C601DF91CF911F910F91FF9032
:1009E000EF90DF90CF90BF90AF9008950F931F933B
:1009F000CF93DF9300D000D000D01F92CDB7DEB7E9
:100A00008C0184E392E09A8389831B821C821D827D
:100A10001E821F82188619861A86D801ED91FC91D4
:100A20000190F081E02DAE014F5F5F4F6AE070E012
:100A3000C80119950E946204F80160877187828756
:100A400093872A960FB6F894DEBF0FBECDBFDF9115
:100A5000CF911F910F910895442339F021E030E0A8
:100A6000FC013383228362E272E0CB010895CF92CE
:100A7000DF92EF92FF92DC011D921D921D921C925B
:100A80001397FB0130E020E0419150E0022E02C0BC
:100A9000440F551F0A94E2F7052E000C660B770BE6
:100AA000CD90DD90ED90FC9013974C295D296E2937
:100AB0007F294D935D936D937C931397285F3F4FF0
:100AC0002032310509F7FF90EF90DF90CF90089525
:100AD000FC01408351831282138208958EE892E0D4
:100AE00008958EE792E008954F925F926F927F9201
:100AF0008F929F92AF92BF92EF92FF920F931F93AC
:100B0000CF93DF9300D01F92CDB7DEB77C018B016E
:100B1000CE0101960E94370589819A81AB81BC8103
:100B20004C015D0124E0820E911CA11CB11CA801A6
:100B30004D5F5F4FFA0124E030E02901712C612CF8
:100B4000481459046A047B0428F4618161932F5F7F
:100B50003F4FF3CFF801E80FF91F1382F7015383DA
:100B6000428304960F900F900F900F90DF91CF91DA
:100B70001F910F91FF90EF90BF90AF909F908F903B
:100B80007F906F905F904F900895CB0108950895E6
:100B90008DE592E0089581E492E0089580E292E08C
:100BA00008958DE092E008954F925F926F927F9248
:100BB0008F929F92AF92BF92EF92FF920F931F93EB
:100BC000CF93DF9300D01F92CDB7DEB77C018B01AE
:100BD000FB018191BF01F7018283CE0101960E9442
:100BE000370589819A81AB81BC814C015D01F5E0BB
:100BF0008F0E911CA11CB11CA8014C5F5F4FFA0124
:100C000025E030E02901712C612C481459046A0454
:100C10007B0428F4618161932F5F3F4FF3CFF8018C
:100C2000E80FF91F1482F7015483438305960F9050
:100C30000F900F900F90DF91CF911F910F91FF9028
:100C4000EF90BF90AF909F908F907F906F905F904C
:100C50004F9008958CEE91E0089583ED91E0089512
:100C60004F925F926F927F928F929F92AF92BF92BC
:100C7000CF92DF92EF92FF920F931F93CF93DF9368
:100C8000CDB7DEB72C970FB6F894DEBF0FBECDBF41
:100C90007C018B01DB018C9190E0F70193838283CF
:100CA00011962C91922B938382836E5F7F4FCE019E
:100CB00001960E94370589809A80AB80BC80240110
:100CC0003501F6E04F0E511C611C711C98012B5F21
:100CD0003F4FF90186E090E0AC0170E060E0441520
:100CE00055056605770520F4418141930196F4CFBF
:100CF000B4016A5F7F4FF801E80DF91D1582D70135
:100D000015963C932E931497600F711FCE01059694
:100D10000E943705BAE08B0E911C4D805E806F807B
:100D20007884C401092C000CAA0BBB0B5C016D017B
:100D3000A40CB51CC61CD71CF801E80DF91DAF01A9
:100D4000401B510B70E060E04A155B056C057D05AA
:100D500038F42191AF0142505109DA012C93EFCFC1
:100D6000480C591CB801640D751DFB0131971082A8
:100D7000C4010197800F911FF70197838683CE01ED
:100D800009960E94370592012C5F3F4F89849A840F
:100D9000AB84BC84A901032E000C660B770B480DB5
:100DA000591D6A1D7B1DF801E20FF31FCF01801B47
:100DB000910BB0E0A0E084179507A607B70728F4C9
:100DC0008191DF0112978C93F1CFC901880D991D94
:100DD000F801E80FF91FDF0111971C92215031092A
:100DE000020F131FD70119961C930E931897218198
:100DF000428150E070E060E0BA0155274427522B51
:100E00002081422B2381722BF7014287538764870D
:100E1000758704962C960FB6F894DEBF0FBECDBF33
:100E2000DF91CF911F910F91FF90EF90DF90CF90C6
:100E3000BF90AF909F908F907F906F905F904F90FA
:100E4000089582EB91E0089584EA91E00895FC0111
:100E5000DB014C9150E070E060E042835383648397
:100E6000758311968C911197582B42835383648319
:100E7000758312968C911297682B428353836483F7
:100E8000758313968C911397782B428353836483D5
:100E9000758314964C91149750E070E060E046839F
:100EA00057836087718715968C911597582B4683C9
:100EB00057836087718716968C911697682B4683A7
:100EC00057836087718717968C91782B4683578359
:100ED0006087718788E090E00895DC01FB0112963D
:100EE0008C911297808313968C911397818314961B
:100EF0008C911497828315968C91159783831696FF
:100F00008C911697848317968C91179785831896E2
:100F10008C911897868319968C91878388E090E04E
:100F20000895EF92FF920F931F93CF93DF937C016D
:100F30008B01DC011296ED91FC91EF0109900020EC
:100F4000E9F72197CE1BDF0BAE0170E060E0C8012E
:100F50000E946805F70162817381AE01C8010496A1
:100F60000E94B214CE010496DF91CF911F910F9190
:100F7000FF90EF9008954F925F926F927F928F92C1
:100F80009F92AF92BF92CF92DF92EF92FF920F9318
:100F90001F93CF93DF93EC017B018A81FB01808358
:100FA0008B8181838C8182838D8183833496412CD4
:100FB000512C320104E010E09F012F5F3F4FCF0121
:100FC0000296DF011396A8010C5F1F4F8A809B8059
:100FD000AC80BD80481459046A047B04C8F4AA8517
:100FE000BB85A40FB51F14974C9111962C911197A6
:100FF00012969C91129713968C9140832183928331
:1010000083838FEF481A580A680A780A3496D4CF37
:101010004C8540834D85F90140832E85FC0120835A
:101020008F858C93F701E00FF11F412C512C320179
:10103000AF019F012F5F3F4FCF010296DF01139653
:101040000C5F1F4F8C849D84AE84BF844814590468
:101050006A047B04D8F4CF01841B950BAC89BD894D
:10106000A80FB91F3C9111962C91119712969C9143
:10107000129713968C9130832183928383838FEF11
:10108000481A580A680A780A3496D3CF4E894083A2
:101090004F89F9014083288DFC012083898D8C9331
:1010A000412C512C32018E899F89A88DB98D48160B
:1010B00059066A067B0680F55201AA0CBB1CEC8D12
:1010C000FD8DEA0DFB1DA081B181FD010190002085
:1010D000E9F731976F01CA1ADB0AA60170E060E0F8
:1010E000C701800F911F0E9468050C5F1F4F8C8DF8
:1010F0009D8DA80EB91EF50160817181A601C70101
:10110000800F911F0E94B2140C0D1D1DFFEF4F1A8E
:101110005F0A6F0A7F0AC7CFC801DF91CF911F9185
:101120000F91FF90EF90DF90CF90BF90AF909F9086
:101130008F907F906F905F904F900895EF92FF9205
:101140000F931F93CF93DF938C017B01DC011296E9
:101150002C911297FB012193CF011396ED91FC91F5
:10116000EF0109900020E9F72197CE1BDF0BAE01BC
:1011700070E060E00E946805D80113966D917C9143
:10118000AE01C70105960E94B214CE010596DF910B
:10119000CF911F910F91FF90EF900895CF92DF9222
:1011A000EF92FF920F931F93CF93DF936C01EB01AC
:1011B000DC0112968C911297888313968C91139769
:1011C00089831496ED91FC91DF010D900020E9F7E1
:1011D0008D01015011090E1B1F0BA80170E060E08A
:1011E000CE0102960E946805F60164817581A8010E
:1011F000CE0106960E94B214C8010696F601A68199
:10120000B781FD0101900020E9F731977F01EA1ACB
:10121000FB0AA70170E060E08C0F9D1F0E9468052B
:10122000065F1F4FD60116966D917C91A701CE01E6
:10123000800F911F0E94B2140E0D1F1DF601A08594
:10124000B185FD0101900020E9F731977F01EA1A8D
:10125000FB0AA70170E060E0CE01800F911F0E94A1
:1012600068050C5F1F4FD60118966D917C91A70100
:10127000CE01800F911F0E94B214C701800F911FF1
:10128000F6016285438534852585C80FD91F68839B
:1012900049833A832B830496DF91CF911F910F915D
:1012A000FF90EF90DF90CF9008950C9448132F9209
:1012B0003F924F925F926F927F928F929F92AF92E6
:1012C000BF92CF92DF92EF92FF920F931F93CF9333
:1012D000DF93CDB7DEB72E970FB6F894DEBF0FBE03
:1012E000CDBF8C016B01DB018D909D90AD90BC90CA
:1012F000FC0182819381A481B58188159905AA0595
:10130000BB0570F4B401660F771F660F771F8285E7
:1013100093850E94D113D8011B969C938E931A97A4
:10132000F80182829382A482B582C60140E050E037
:10133000BA01A4E0EA2EF12C98012A5F3F4FDC01AC
:101340001596EC91159716964C901697512C712C7A
:10135000612C3201552444245E2A1496EC91149792
:101360004E2A1796EC917E2AD7011701E4E02E0E43
:10137000311C71010496F80182809380A480B580AD
:10138000481559056A057B05A8F446825782608690
:1013900071861497A284B384AA0DBB1DE4E0BE2E0F
:1013A000F90101900D92BA94E1F74F5F5F4F6F4FD3
:1013B0007F4FC5CF84859585A685B785841595050E
:1013C000A605B70570F4B201660F771F660F771F89
:1013D000848995890E94D113D80155969C938E9348
:1013E0005497F8014486558666867786C601820D35
:1013F000931D412C512C32011C019801205F3F4F5D
:10140000DC0111966C91119712968C901297912C89
:10141000B12CA12C540199248824962A6C91862AF7
:1014200013966C91B62AB4E0EB0EF11CF8014485DA
:101430005585668577854416550666067706C0F499
:10144000808A918AA28AB38ABC0162197309A4892D
:10145000B589A60FB71F64E0F90101900D926A9556
:10146000E1F7BFEF4B1A5B0A6B0A7B0A0496C8CF01
:1014700086899789A08DB18D88159905AA05BB0528
:1014800060F4B401660F771F848D958D0E94D1138F
:10149000D8015D969C938E935C97F801868A978A13
:1014A000A08EB18E412C512C32011801FAE12F0E81
:1014B000311CF80186899789A08DB18D481659068F
:1014C0006A067B0608F05CC0B6016E0D7F1DCE017A
:1014D00001960E94370597012C5F3F4F3E872D876D
:1014E00089809A80AB80BC80C901032E000CAA0BB6
:1014F000BB0BAC01BD01480D591D6A1D7B1D498701
:101500005A876B877C87F901EC0DFD1D9F012C1913
:101510003D09B90190E080E029853A854B855C85DD
:10152000621773078407950728F42191DF0112974A
:101530002C93ECCFED84FE84E80CF91CF601EE0D43
:10154000FF1D319710828D859E8501978C0D9D1D05
:10155000D8015B969C938E935A97C201880F991F6E
:101560005C96ED91FC91E80FF91FD1018D919C9152
:1015700091838083BFEF4B1A5B0A6B0A7B0A99CF7A
:10158000C7012E960FB6F894DEBF0FBECDBFDF9118
:10159000CF911F910F91FF90EF90DF90CF90BF9070
:1015A000AF909F908F907F906F905F904F903F9003
:1015B0002F9008952F923F924F925F926F927F9259
:1015C0008F929F92AF92BF92CF92DF92EF92FF9253
:1015D0000F931F93CF93DF93CDB7DEB7A6970FB6C8
:1015E000F894DEBF0FBECDBF8C010E9462042B01B8
:1015F0003C01980129573B4F3C8B2B8BF901808193
:101600009181A281B381A3019201281B390B4A0B5E
:101610005B0BDA01C901893F9A42A105B10510F0BF
:1016200035971082480148E8841A4BEF940AD40198
:101630008D919C91892B79F0F801E557FB4F8081C2
:101640009181A281B38184159505A605B70518F48B
:10165000F40111821082980120583B4F388B2F875C
:10166000A80144585B4F5A8B498B180154E1250E51
:10167000311CC8018E579B4F988F8F8BD801A05774
:10168000BB4FBE8FAD8FF801E157FB4FF8A3EF8F33
:101690005801F6E8AF1AFBEFBF0A225031093E8B22
:1016A0002D8BA80145575B4F5AA349A3D301C20113
:1016B0004496A11DB11D8BA39CA3ADA3BEA3D801CD
:1016C00012968D919C91DC01ED91FC910284F38541
:1016D000E02D19959C0197FDAFC2EF85F8898081B7
:1016E0009181820F931F91838083D4014D915C91EE
:1016F000119747305105E1F4ED89FE898081918190
:10170000AC014F5F5F4F51834083800F911FDC011D
:1017100054962C93F5018081918101979183808368
:10172000892B69F688E090E0D4018D939C93C7CF14
:101730004115510509F03FC02F3F310589F481E083
:1017400090E0F401918380832BA13CA14DA15EA187
:10175000A9A1BAA12D933D934D935C931397AFCF5D
:101760000E9462046419750986099709663071053B
:101770008105910508F4A3CFF801EE57FB4F1082C5
:101780008EEF9FEFA6960FB6F894DEBF0FBECDBFCB
:10179000DF91CF911F910F91FF90EF90DF90CF904D
:1017A000BF90AF909F908F907F906F905F904F9081
:1017B0003F902F9008954130510581F482E090E0F0
:1017C0002E3F310571F11D921C92EF89F88D8081B9
:1017D000811175CFC8010E94F60471CF42305105C6
:1017E00089F4D5012D933C93ED89FE8911821082F5
:1017F00083E090E0D4018D939C93EF85F889318349
:1018000020835DCF4330510581F4322F2227D5014B
:101810008D919C911197280F391F2D933C9384E053
:1018200090E0F401918380834ACF4430510571F4F4
:1018300060E071E00E942E128F3F910519F485E05F
:1018400090E072CFF4011182108239CF45305105FA
:1018500071F4A989BA892D933C9386E090E0F40154
:1018600091838083AF85B8892D933C9328CF4630F0
:10187000510591F4322F2227E989FA8980819181DB
:10188000280F391F3183208387E090E08D939C934C
:10189000F5018081918144CF4830510509F00FCF87
:1018A0001D921C9260E071E00E942E128F3F910504
:1018B00009F005CFA989BA89ED91FC91309709F01B
:1018C000ECC0C8010E94F60488E292E09A83898302
:1018D0001C821B8284EB92E09E838D8398878F838A
:1018E0009A8789871B861C861D861E866801BCEE2A
:1018F000CB1ABBEFDB0A7801EAEBEE1AEBEFFE0A3C
:10190000D601ED91FC91309709F44BC08581968109
:101910009C838B83808191812281B12CA12C2223F5
:1019200029F0AA24A394B12C82E292E09E838D83B5
:1019300083819481DC01ED91FC910480F581E02D9F
:10194000199598878F83D601ED91FC9183819481BD
:10195000DC01ED91FC910680F781E02D19959A87C5
:10196000898720E032E040E050E02B873C874D87BC
:101970005E87D601ED91FC9161857285D801ED916C
:10198000FC910190F081E02DAE014F5F5F4FC801E7
:101990001995AA94AB2829F465EB72E0C8010E945E
:1019A000E602E2E0CE0ED11CEC14FD0409F0A8CF53
:1019B000F701A081B181109709F454C012968D915E
:1019C0009C9113979C838B8314968D919C91159772
:1019D00016962C911697D12CC12C222329F0CC24B9
:1019E000C394D12C82E292E09E838D83ED91FC9191
:1019F00011970480F581E02DCD01199598878F838B
:101A0000D7018D919C91DC01ED91FC910680F781CD
:101A1000E02D19959A87898720E032E040E050E078
:101A20002B873C874D875E87D801ED91FC91A08084
:101A3000B180F70180819181DC01ED91FC91028000
:101A4000F381E02D1995AE014F5F5F4FBC01C801D6
:101A5000F5011995CA94CD2829F465EB72E0C80107
:101A60000E94E60222E0E20EF11C8E149F0409F0AF
:101A70009FCFF801EE57FB4F81E080833196408283
:101A8000518262827382AB89BC894D925D926D9264
:101A90007C9213978FEF9FEF75CEEA30F10509F036
:101AA000A3C084E392E09A8389831B821C821D82F7
:101AB0001E821F82188619861A860E946204F80107
:101AC000C084D184E284F3849B01AC012C193D09CC
:101AD0004E095F0969017A01B101CE0101960E94A8
:101AE0002707C701B60128EE33E040E050E00E942E
:101AF000421269017A019B01AC018B819C81AD810D
:101B0000BE818C0D9D1DAE1DBF1D8B839C83AD833F
:101B1000BE8360E472E48FE090E00E941212CF80F6
:101B2000D884E984FA84DC01CB018C0D9D1DAE1DA7
:101B3000BF1D8F839887A987BA870E946204CF80D0
:101B4000D884E984FA8436E3D31A35E6E30A34EC20
:101B5000F30A28EE33E040E050E00E944212298F61
:101B60003A8F4B8F5C8F9B01AC0160E472E48FE095
:101B700090E00E941212A7019601261B370B480B1A
:101B8000590BCA01B901CB80DC80ED80FE8031E0C9
:101B9000C31AD108E108F108298D3A8D4B8D5C8D6F
:101BA000C21AD30AE40AF50A20E03AEC4AE95BE3F8
:101BB0000E9442122C0D3D1D4E1D5F1DD8011C962A
:101BC0002D933D934D935C931F97F801608B718B20
:101BD000828B938B0E946204AB89BC896D937D9349
:101BE0008D939C9313976BCDE630F10551F4B101C1
:101BF0008D8D9E8D0E94570981E0EF8DF8A1808325
:101C00005ECDEB30F10521F4AF89B88D1C9257CD34
:101C1000E154FE4FEE0FFF1FE00FF11F8081918115
:101C2000009709F44CCDDC01ED91FC910190F0811D
:101C3000E02DB101199543CDF801EE57FB4F80819E
:101C4000882301F17801BDE7EB1ABBEFFB0AF7012E
:101C500080819181A281B381A3019201281B390B5C
:101C60004A0B5B0BDA01C901853C9940A105B1051E
:101C700048F0C8010E94F604D7014D925D926D9222
:101C80007C92139790E080E07DCD1F920F920FB66B
:101C90000F9211240BB60F922F933F934F935F93A4
:101CA0006F937F938F939F93AF93BF93EF93FF9324
:101CB00084EE92E00E947D03FF91EF91BF91AF917E
:101CC0009F918F917F916F915F914F913F912F9154
:101CD0000F900BBE0F900FBE0F901F9018951F9284
:101CE0000F920FB60F9211240BB60F922F938F9372
:101CF0009F93EF93FF93E091F402F091F5028081BE
:101D0000E091FA02F091FB0282FD1DC0908180916A
:101D1000FD028F5F8F732091FE02821741F0E091E8
:101D2000FD02F0E0EC51FD4F958F8093FD02FF9195
:101D3000EF919F918F912F910F900BBE0F900FBE3F
:101D40000F901F9018958081F2CF1F920F920FB6BF
:101D50000F9211242F933F938F939F93AF93BF9331
:101D60008091D3029091D402A091D502B091D60275
:101D70003091D20223E0230F2D3758F50196A11D93
:101D8000B11D2093D2028093D3029093D402A093EA
:101D9000D502B093D6028091D7029091D802A0913B
:101DA000D902B091DA020196A11DB11D8093D7022C
:101DB0009093D802A093D902B093DA02BF91AF9169
:101DC0009F918F913F912F910F900FBE0F901F9079
:101DD000189526E8230F0296A11DB11DD2CF1092AF
:101DE000E7021092E60288EE93E0A0E0B0E0809374
:101DF000E8029093E902A093EA02B093EB028CE42C
:101E000092E09093E5028093E4028DEC90E0909351
:101E1000F1028093F0028CEC90E09093F3028093B7
:101E2000F20288EC90E09093F5028093F40289EC42
:101E300090E09093F7028093F6028AEC90E0909302
:101E4000F9028093F8028EEC90E09093FB0280936D
:101E5000FA021092FD021092FE021092FF021092FE
:101E6000000310923E0886E00E940F028AE692E08C
:101E7000909391038093900384EE92E09093930368
:101E80008093920380E092ECA1E0B0E08093940311
:101E900090939503A0939603B09397031092120822
:101EA0008EE592E0909321088093200810923608E6
:101EB00010923708109238081092390810923D0895
:101EC00010923C08E4EAF7E01192119287E0E63DB7
:101ED000F807D1F7E6EDF7E01192119288E0E830CB
:101EE000F807D1F7E4EAF3E084EA95E011928E175F
:101EF0009F07E1F7E4EAF5E0119287E0E43AF8079A
:101F0000D9F71092220810922308109224081092F8
:101F1000250810922B0810922A0810922C08109273
:101F20002D0810922E0810922F081092350810924A
:101F3000340884E792E090938D0380938C0384EBC4
:101F400092E090938F0380938E0389EC92E09093BC
:101F5000820380938103109283038CE893E0909333
:101F600085038093840310928B0310928A03089553
:101F7000CF93DF9300D000D000D01F92CDB7DEB753
:101F8000789484B5826084BD84B5816084BD85B554
:101F9000826085BD85B5816085BD80916E00816060
:101FA00080936E0010928100809181008260809306
:101FB0008100809181008160809381008091800008
:101FC0008160809380008091B10084608093B10033
:101FD0008091B00081608093B00080919100826018
:101FE0008093910080919100816080939100809115
:101FF00090008160809390008091A1008260809326
:10200000A1008091A10081608093A1008091A00037
:1020100081608093A00080912101826080932101E2
:102020008091210181608093210180912001816054
:102030008093200180917A00846080937A0080915F
:102040007A00826080937A0080917A008160809328
:102050007A0080917A00806880937A001092C100A3
:102060008DE00E940F02E0909203F0909303FA82B9
:10207000E9828090940390909503A0909603B0908D
:10208000970360E079E08DE390E0A50194010E9460
:10209000421221503109410951095695479537950A
:1020A0002795D7015096ED91FC9182E080838114B1
:1020B000B1EE9B06A104B10421F02115E0E13E0739
:1020C000B0F0A981BA815096ED91FC91108260E840
:1020D00074E88EE190E0A50194010E944212215023
:1020E0003109410951095695479537952795A98199
:1020F000BA811C96ED91FC911D9730831E96ED914F
:10210000FC911F97208358961C9258975496ED91F6
:10211000FC91559786E080835296ED91FC91539700
:102120008081806180835296ED91FC9153978081EC
:10213000886080835296ED91FC91539780818068EE
:1021400080835296ED91FC9180818F7D80831092E7
:1021500009081092080810920B0810920A081092B1
:102160000F0810920E0810920D0810920C08E4EA65
:10217000F7E090E080E021913191232B09F0E7C056
:10218000FC01EE0FFF1FEC55F84F21E833E03183DF
:10219000208383589F4F909387038093860380E921
:1021A00093E0909389038093880323EB222E2BE006
:1021B000322E0E9462044090DC025090DD0260905A
:1021C000DE027090DF028090E0029090E102B09118
:1021D000E202BA87E091E302E9879B01AC0160E08B
:1021E00070E080E090E05201630174010B2F1E2F1C
:1021F0000E94801209F4B1C00E9462049B01AC01EC
:1022000060E070E080E090E05201630174010A85B3
:1022100019850E947712233F314041055105610520
:1022200071058105910511F008F0BEC00E9462049D
:10223000653378408105910508F486C02091DB0262
:10224000822F6AE00E942212805D80930C02905DD2
:1022500090930D022F5F243608F0E1C02093DB023B
:1022600000E012E01A83098390E0A981BA818D9180
:10227000BA83A983992E982688E09CE8969408F45E
:1022800099268A95D9F7992DEFE0F2E0EA17FB0736
:1022900061F710923E0895E8A92EB12C80913E0876
:1022A000F1E08F2780933E080E942E02C101019722
:1022B000F1F721E0A21AB10889F780E00E942E020E
:1022C0008BE99FE00197F1F781E00E942E02D8018F
:1022D0008D918D010E94B602E980FA800E151F05CE
:1022E000B1F7892D0E94B602C1010197F1F78091E3
:1022F0003E08FF24F3948F2580933E080E942E020F
:102300000E943D044B015C0184E6482E512C612C57
:10231000712C0E943D04681979098A099B09683E5D
:10232000734081059105A8F301E0401A5108610846
:10233000710818EE810E13E0911EA11CB11C41140E
:1023400051046104710429F70E940C0432CF0196F4
:102350008931910509F00FCF28CF0E9462047B01DB
:102360008C0120E030E0A9016983FA828B831C8311
:102370002D833E834F8358879201A301B4018A8540
:10238000998557016801E12CF12C00E010E00E94D2
:102390007712233F314041055105610571058105E3
:1023A000910509F008F442CF2FE032E030938F031B
:1023B00020938E0380918803909189036091860316
:1023C00070918703DC01ED91FC910190F081E02D8B
:1023D0004CE853E0199580E993E00E94DA0A0E94E4
:1023E00062047B018C0120E030E0A9016983FA825C
:1023F0008B831C832D833E834F8358876093DC023D
:10240000F092DD028093DE021093DF021092E00270
:102410001092E1021092E2021092E30207CF1092B2
:10242000DB021ECFDB018F939F930E946C12BF9142
:10243000AF91A29F800D911DA39F900DB29F900D13
:1024400011240895991B79E004C0991F961708F08C
:10245000961B881F7A95C9F78095089597FB072EDC
:1024600016F4009407D077FD09D00E94891207FC6A
:1024700005D03EF4909581959F4F08957095619594
:102480007F4F0895A1E21A2EAA1BBB1BFD010DC0B0
:10249000AA1FBB1FEE1FFF1FA217B307E407F50714
:1024A00020F0A21BB30BE40BF50B661F771F881FF0
:1024B000991F1A9469F760957095809590959B0186
:1024C000AC01BD01CF010895EE0FFF1F881F8BBF28
:1024D0000790F691E02D19940E949D12A59F900DF2
:1024E000B49F900DA49F800D911D112408952A1969
:1024F0003B094C095D096E097F09800B910B08951A
:102500002A153B054C055D056E057F058007910783
:102510000895AA1BBB1B51E107C0AA1FBB1FA6172A
:10252000B70710F0A61BB70B881F991F5A95A9F77C
:1025300080959095BC01CD010895A29FB001B39FF5
:10254000C001A39F700D811D1124911DB29F700DBC
:10255000811D1124911D08950F931F93CF93DF9335
:102560008230910510F482E090E0E0914108F09112
:10257000420830E020E0B0E0A0E0309799F4211567
:10258000310509F44AC0281B390B24303105D8F530
:102590008A819B816115710589F1FB019383828397
:1025A000FE0111C0408151810281138148175907F2
:1025B000E0F04817590799F4109761F012960C93C0
:1025C000129713961C933296CF01DF91CF911F91F2
:1025D0000F9108950093410810934208F4CF2115FC
:1025E000310551F04217530738F0A901DB019A0178
:1025F000BD01DF01F801C1CFEF01F9CF909342088F
:1026000080934108CDCFFE01E20FF31F8193919398
:102610002250310939832883D7CF20913F08309148
:102620004008232B41F420911E0230911F02309369
:10263000400820933F0820911C0230911D02211573
:10264000310541F42DB73EB740912002509121024F
:10265000241B350BE0913F08F0914008E217F30787
:10266000A0F42E1B3F0B2817390778F0AC014E5F02
:102670005F4F2417350748F04E0F5F1F50934008F7
:1026800040933F08819391939FCFF0E0E0E09CCF8F
:10269000CF93DF930097E9F0FC0132971382128207
:1026A000A0914108B0914208ED0130E020E0109780
:1026B000A1F420813181820F931F20913F08309136
:1026C00040082817390709F061C0F0934008E093EB
:1026D0003F08DF91CF910895EA01CE17DF07E8F5B3
:1026E0004A815B819E0141155105B1F7E901FB83E8
:1026F000EA8349915991C40FD51FEC17FD0761F486
:10270000808191810296840F951FE90199838883C6
:10271000828193819B838A83F0E0E0E012968D9121
:102720009C9113970097B9F52D913C911197CD018C
:102730000296820F931F20913F083091400828177E
:10274000390739F6309751F5109242081092410836
:10275000B0934008A0933F08BCCFD383C28340818D
:102760005181840F951FC817D90761F44E5F5F4FE1
:1027700088819981480F591F518340838A819B81A9
:10278000938382832115310509F0B0CFF09342087D
:10279000E09341089ECFFD01DC01C0CF138212827D
:1027A000D7CF4F925F926F927F928F929F92AF920C
:1027B000BF92CF92DF92EF92FF920F931F93CF932E
:1027C000DF938C01009799F4CB01DF91CF911F919A
:1027D0000F91FF90EF90DF90CF90BF90AF909F90C0
:1027E0008F907F906F905F904F900C94AC12FC0193
:1027F000E60FF71F9C0122503109E217F30708F496
:10280000AEC0D901CD91DC911197C617D70720F141
:10281000C530D10578F0CE0104978617970750F0A0
:10282000C61BD70B2297C193D1936D937C93CF0195
:102830000E944813C801DF91CF911F910F91FF9023
:10284000EF90DF90CF90BF90AF909F908F907F9050
:102850006F905F904F9008955B01AC1ABD0A4C01D8
:102860008C0E9D1EA0914108B0914208512C412C24
:10287000F12CE12C109731F580913F0890914008A0
:102880008815990509F05CC04616570608F058C02F
:1028900080911C0290911D02009741F48DB79EB764
:1028A0004091200250912102841B950BE817F907F3
:1028B00008F055C0F0934008E0933F08F901718398
:1028C0006083B8CF8D919C91119712966C9012975E
:1028D00013967C901397A815B90559F56C0142E041
:1028E000C40ED11CCA14DB0420F1AC014A195B09E7
:1028F000DA011296159780F06282738251834083C9
:10290000D9016D937C93E114F10471F0D701139612
:10291000FC93EE9312978ECF22968C0F9D1FF90198
:1029200091838083F301EFCFF0934208E093410855
:1029300081CF4816590608F42C017D01D3019ACFA6
:10294000CB010E94AC127C01009749F0AE01B801A6
:102950000E94B214C8010E94481387016BCF10E097
:1029600000E068CFFB01DC0102C001900D924150F4
:0A2970005040D8F70895F894FFCF07
:10297A0048656C6C6F2066726F6D202378780068EA
:10298A00656C6C6F20776F726C64210000004308DD
:10299A008000000000000000CE0830062D062A063E
:1029AA00000000006D072707240721070000000028
:1029BA009E08D405D105CE05000000009F03090337
:1029CA003603EC0367034503590300000000BB0705
:1029DA005709CB05C805000000007304DA0A6E0423
:1029EA00000000009107740571056E054D6573734B
:1029FA006167652066726F6D20646576696365201C
:102A0A0064726F707065643A206D6573736167658F
:102A1A00206C6172676572207468616E20627566E7
:102A2A006665722E00466C61736820726561642067
:102A3A006E6F7420696D706C00636861747465727E
:022A4A0000008A
:00000001FF
